:1000000034C04EC04DC04CC04BC04AC049C048C0AF
:1000100047C046C045C044C043C042C041C040C0C4
:100020003FC03EC03DC0BAC1DAC1FAC118C236C233
:1000300056C276C294C2B2C2C4C2D6C2E8C2C2C557
:10004000DBC521C663C6B9C60FC726C768C7BEC70A
:1000500014C8B3CAB4CAB5CAB6CAB7CAB8CAB9CA44
:10006000BACABBCABCCABDCABECA11241FBECFE52C
:10007000D4E0DEBFCDBF10E0A0E6B0E0E6ECF7E1F3
:1000800002C005900D92AA36B107D9F711E0AAE691
:10009000B0E001C01D92AD34B107E1F74BDB92CB6C
:1000A000AFCFA0E0B0E07ADB802D90E00895FC01B6
:1000B000EE0FFF1FEB5CFE4F7783668375876487C7
:1000C000738B628B718F608F0895A0E0B0E0082E73
:1000D0006DDB08959C01892B39F080ED97E0019745
:1000E000F1F721503040C9F708959C01892B31F078
:1000F00082E08A95F1F721503040D1F70895EDE381
:10010000F1E085E591E0118210821382128215825E
:1001100014823696E817F907B1F70895CF93DF9365
:1001200080913D0190913E01181619060CF4929AA7
:1001300080913F0190914001181619060CF4909A95
:100140008091410190914201181619060CF4919A80
:100150008091430190914401181619060CF4C69A37
:100160008091450190914601181619060CF4939A56
:100170008091470190914801181619060CF4949A41
:100180008091490190914A01181619060CF4969A2B
:1001900080914B0190914C01181619060CF4C79AE6
:1001A00080914D0190914E01181619060CF4959A04
:1001B00080914F0190915001181619060CF4C19AC4
:1001C0008091510190915201181619060CF4979ADA
:1001D0008091530190915401181619061CF0C0E04B
:1001E000D0E003C0C09AC0E0D0E082E090E07DDFC4
:1001F00080913D0190913E01C817D9070CF092986B
:1002000080913F0190914001C817D9070CF0909858
:100210008091410190914201C817D9070CF0919843
:100220008091430190914401C817D9070CF0C698FA
:100230008091450190914601C817D9070CF0939819
:100240008091470190914801C817D9070CF0949804
:100250008091490190914A01C817D9070CF09698EE
:1002600080914B0190914C01C817D9070CF0C798A9
:1002700080914D0190914E01C817D9070CF09598C7
:1002800080914F0190915001C817D9070CF0C19887
:100290008091510190915201C817D9070CF097989D
:1002A0008091530190915401C817D9070CF0C09860
:1002B000219681E0CC32D80709F097CFDF91CF911A
:1002C0000895EF92FF920F931F93CF93DF938C01CA
:1002D000181619061CF0EE24FF240EC0EE24FF248D
:1002E000C0E0D0E0B59903C0EE24FF24E39416DF0C
:1002F0002196C017D107B1F7C701DF91CF911F91A8
:100300000F91FF90EF900895EF92FF920F931F933C
:10031000CF93DF938C01181619061CF0EE24FF24EE
:100320000EC0C0E0D0E0EE24FF24B49903C0EE2458
:10033000FF24E394F3DE2196C017D107B1F7C7017C
:10034000DF91CF911F910F91FF90EF9008950F9340
:100350001F93CF93DF938C01181619063CF4C0E06D
:10036000D0E0DCDE2196C017D107D9F7DF91CF911D
:100370001F910F91089560916600709167008091C0
:100380006A0090916B00860F971FFC013197EC304B
:10039000F10508F04EC1ED5EFF4F099425E331E011
:1003A000FB01EE0FFF1FE60FF71FEE0FFF1FE20F1F
:1003B000F31F8AE090E09383828384E190E0958349
:1003C0008483CB010196FC01EE0FFF1FE80FF91F9C
:1003D000EE0FFF1FE20FF31F118210822AC125E3E7
:1003E00031E0FB01EE0FFF1FE60FF71FEE0FFF1FBF
:1003F000E20FF31F1382128284E690E095838483D8
:10040000CB010196FC01EE0FFF1FE80FF91FEE0F65
:10041000FF1FE20FF31F8AE090E09183808309C100
:1004200025E331E0FB01EE0FFF1FE60FF71FEE0F94
:10043000FF1FE20FF31F1382128215821482CB0179
:100440000196FC01EE0FFF1FE80FF91FEE0FFF1FD3
:10045000E20FF31F8EE190E091838083EAC025E3F1
:1004600031E0FB01EE0FFF1FE60FF71FEE0FFF1F3E
:10047000E20FF31F8EE190E0938382831582148252
:10048000CB010196FC01EE0FFF1FE80FF91FEE0FE5
:10049000FF1FE20FF31F11821082CBC025E331E072
:1004A000FB01EE0FFF1FE60FF71FEE0FFF1FE20F1E
:1004B000F31F8EE190E09383828315821482CB0137
:1004C0000196FC01EE0FFF1FE80FF91FEE0FFF1F53
:1004D000E20FF31F82E390E091838083AAC025E3BB
:1004E00031E0FB01EE0FFF1FE60FF71FEE0FFF1FBE
:1004F000E20FF31F138212828EE190E095838483D2
:10050000CB010196FC01EE0FFF1FE80FF91FEE0F64
:10051000FF1FE20FF31F82E390E09183808389C085
:1005200045E351E0FB01EE0FFF1FE60FF71FEE0F53
:10053000FF1FE40FF51F2AE030E033832283358369
:100540002483CB010196FC01EE0FFF1FE80FF91F7A
:10055000EE0FFF1FE40FF51F318320836AC025E3F0
:1005600031E0FB01EE0FFF1FE60FF71FEE0FFF1F3D
:10057000E20FF31F138212828AE090E09583848356
:10058000CB010196FC01EE0FFF1FE80FF91FEE0FE4
:10059000FF1FE20FF31F118210824BC08AE090E030
:1005A0009093400180933F019093480180934701CD
:1005B00090934E0180934D01909354018093530189
:1005C00038C08AE090E0909342018093410190937B
:1005D00044018093430190934E0180934D01909389
:1005E00054018093530125C08AE090E0909342012A
:1005F00080934101909348018093470190934C016F
:1006000080934B01909354018093530112C08AE070
:1006100090E0909342018093410190934801809330
:10062000470190934E0180934D0190935001809328
:100630004F0181E090E08BDE0895CF92DF92EF9240
:10064000FF920F931F93CF93DF9359DDC0E0D0E06B
:10065000D0933E01C0933D01D0934401C093430128
:10066000D0934A01C0934901D0935001C0934F01E8
:100670008AE090E06CDE2A96C436D10549F7C4E6DC
:10068000D0E0D0933E01C0933D01D0934401C0938C
:100690004301D0934A01C0934901D0935001C093C4
:1006A0004F018AE090E053DE2A9759F728DDEE24C7
:1006B000FF24E3940F2EF5E3CF2EF1E0DF2EF02D93
:1006C0002EC08AE590E09983888384E190E03FDE44
:1006D000198218820F5F1F4F26960530110589F782
:1006E000C701880F991F4896EC01CC0DDD1D04E071
:1006F00010E08AE590E09983888384E190E027DE2A
:10070000198218820150104026970115110589F7AA
:100710000894E11CF11C84E0E816F10451F0C701D3
:10072000880F991F0696EC01CC0DDD1D01E010E04D
:10073000C8CFE5DCDF91CF911F910F91FF90EF9033
:10074000DF90CF900895AF92BF92CF92DF92EF9259
:10075000FF920F931F935C01A99A8AE090E0F7DD66
:10076000A998CDDC81E090E0F2DD0F2EFEE1CF2EE6
:10077000DD24F02DD0925001C0924F010F2EF2E3F4
:10078000EF2EFF24F02DF0925401E092530101E08E
:1007900010E010934E0100934D01C501D8DD109279
:1007A000500110924F011092540110925301109277
:1007B0004A011092490182E090E090934E018093AB
:1007C0004D01D0924401C0924301F0924801E09261
:1007D000470110934201009341011F910F91FF9037
:1007E000EF90DF90CF90BF90AF900895EF92FF927F
:1007F0000F931F938C0110924E0110924D01109295
:10080000440110924301EE24FF246894E1F8F09231
:100810004801E09247018EE190E090933E01809381
:100820003D0182E390E09093420180934101C80131
:100830008EDD109248011092470110923E011092F5
:100840003D01F0924201E0924101C80180DD109229
:10085000420110924101C8017ADD1F910F91FF9072
:10086000EF900895CF92DF92EF92FF920F931F9334
:10087000CF93DF93AC9A82E390E090934201809310
:100880004101909348018093470190934E018093DA
:100890004D0190935401809353018AE090E057DD1D
:1008A000AC98EE24FF24E3940F2EFEE1CF2EDD243E
:1008B000F02D46C060E070E082E090E0F8DB8CE272
:1008C00091E0B70144D781E090E0F1DBC8013FDD62
:1008D0002196C430D10571F760E070E083E090E0CC
:1008E000E6DBB60182E090E0E2DBC70130DD089490
:1008F000E11CF11C8EE190E0C80ED91E98E0E916CB
:10090000F104F1F46CE271E081E090E0D0DB85E08D
:1009100090E01DDDF4DBCAEFD0E0BE0182E090E0A4
:10092000C6DB0CE211E0109346010093450181E023
:1009300090E00DDD23978FEFCE3FD80771F708C009
:10094000C1E0D0E088E090E08C010E191F09B2CF21
:10095000D6DB109346010093450181E090E0F7DC7F
:10096000DF91CF911F910F91FF90EF90DF90CF908B
:100970000895CF93DF93C3DB929AC69A969AC19A51
:1009800071DF9298C6989698C19881E090E0DFDC7C
:10099000B6DB81E090E0DBDCC0E0D0E0D0933E014C
:1009A000C0933D01D0934401C0934301D0934A01C9
:1009B000C0934901D0935001C0934F018AE090E069
:1009C000C6DC2596C233D10549F7C0E0D0E0D0930C
:1009D0004001C0933F01D0934601C0934501D0939D
:1009E0004C01C0934B01D0935201C09351018AE056
:1009F00090E0ADDC2596C233D10549F7C0E0D0E0E8
:100A0000D0934201C0934101D0934801C093470164
:100A1000D0934E01C0934D01D0935401C093530124
:100A20008AE090E094DC2596C233D10549F7C2E311
:100A3000D0E0D0933E01C0933D01D0934401C093D8
:100A40004301D0934A01C0934901D0935001C09310
:100A50004F018AE090E07BDC259759F7C2E3D0E0B4
:100A6000D0934001C0933F01D0934601C09345010C
:100A7000D0934C01C0934B01D0935201C0935101CC
:100A80008AE090E064DC259759F739DB81E090E05B
:100A90005EDCC0E5D0E0D0934201C0934101D09329
:100AA0004801C0934701D0934E01C0934D01D093AC
:100AB0005401C09353018AE090E049DC259759F72F
:100AC0001EDB81E090E043DCDF91CF9108958F92AF
:100AD0009F92AF92BF92CF92DF92EF92FF920F93CD
:100AE0001F93CF93DF930BDBAA9A8AE090E02FDC71
:100AF000AA9804E010E0AA24BB240F2EFDE68F2E56
:100B0000F0E09F2EF02D0F2EF5E3CF2EF1E0DF2E3B
:100B1000F02D0F2EF7E3EF2EF1E0FF2EF02D2BC07E
:100B2000F801EE0FFF1FE00FF11FEE0FFF1FEC0D9E
:100B3000FD1D28813981C901880F991F820F931FDC
:100B40009383828382E090E002DC0F5F1F4F0530C9
:100B5000110511F401E010E02296CE15DF0501F732
:100B6000CEDA84E690E0F3DB0894A11CB11C82E0AD
:100B7000A816B10411F0E401D3CF8EE190E0909378
:100B8000500180934F0181E090E0E1DBDF91CF9154
:100B90001F910F91FF90EF90DF90CF90BF90AF909B
:100BA0009F908F9008950F931F938091680090916C
:100BB0006900FC013197EA30F10508F0ADC2E15E51
:100BC000FF4F0994AD9A9BDA8CE291E09093540127
:100BD0008093530190934E0180934D01909348016F
:100BE00080934701909342018093410187E090E018
:100BF000AEDB85DAAD9894C282DA0CE211E0109394
:100C00004A0100934901109344010093430181E09C
:100C100090E09DDB74DA1093500100934F01109324
:100C20003E0100933D0181E090E091DB68DA109392
:100C30004A010093490181E090E089DB60DA10937A
:100C400044010093430181E090E081DB58DA109386
:100C5000500100934F0110933E0100933D0181E04C
:100C600090E075DB4CDA10934A0100934901109330
:100C700044010093430181E090E069DB40DA81E0C8
:100C800090E065DB4DC23BDA0CE211E010935001BD
:100C900000934F0110934A010093490110934401BE
:100CA0000093430110933E0100933D0181E090E0E9
:100CB0004EDB25DA10934A010093490181E090E070
:100CC00046DB1DDA10934A010093490181E090E070
:100CD0003EDB15DA10934A010093490181E090E070
:100CE00036DB0DDA10934A010093490181E090E070
:100CF0002EDB05DA10934A010093490181E090E070
:100D000026DBFDD981E090E022DB0AC2F8D90CE2B3
:100D100011E010934A01009349011093440100939C
:100D2000430181E090E013DBEAD910935001009376
:100D30004F0110933E0100933D0181E090E007DBFD
:100D4000DED91093500100934F0110933E010093A0
:100D50003D0181E090E0FBDAD2D91093500100937D
:100D60004F0110934A0100934901109344010093ED
:100D7000430110933E0100933D0181E090E0E7DAEA
:100D8000BED91093500100934F0110933E01009380
:100D90003D0181E090E0DBDAB2D91093500100937D
:100DA0004F0110933E0100933D0181E090E0CFDAC6
:100DB000A6D981E090E0CBDAB3C1A1D90CE211E071
:100DC0001093500100934F0110934A010093490181
:100DD000109344010093430181E090E0B8DA8FD989
:100DE0001093500100934F0110933E0100933D0179
:100DF00081E090E0ACDA83D91093500100934F0169
:100E000010933E0100933D0181E090E0A0DA77D994
:100E10001093500100934F0110934A010093490130
:100E2000109344010093430181E090E090DA67D988
:100E30001093500100934F0110934401009343011C
:100E400081E090E084DA5BD91093500100934F0168
:100E500010933E0100933D0181E090E078DA4FD994
:100E600081E090E074DA5CC14AD98CE291E0909321
:100E700054018093530190934E0180934D019093C0
:100E8000480180934701909342018093410187E09C
:100E900090E05DDA34D944C132D90CE211E010930C
:100EA000500100934F0110934A01009349011093A0
:100EB00044010093430110933E0100933D0181E002
:100EC00090E045DA1CD910934A010093490181E072
:100ED00090E03DDA14D910934A010093490181E072
:100EE00090E035DA0CD910934A010093490181E072
:100EF00090E02DDA04D910934A010093490181E072
:100F000090E025DAFCD810934A010093490181E072
:100F100090E01DDAF4D881E090E019DA01C1EFD851
:100F20000CE211E01093500100934F0110934A011D
:100F300000934901109344010093430181E090E044
:100F400006DADDD81093500100934F0110933E0153
:100F500000933D0181E090E0FAD9D1D8109350017F
:100F600000934F0110933E0100933D0181E090E01A
:100F7000EED9C5D81093500100934F0110934A0148
:100F800000934901109344010093430181E090E0F4
:100F9000DED9B5D81093500100934F01109344014E
:100FA0000093430181E090E0D2D9A9D81093500179
:100FB00000934F0110933E0100933D0181E090E0CA
:100FC000C6D99DD881E090E0C2D9AAC098D80CE2D9
:100FD00011E01093500100934F0110934A010093C8
:100FE0004901109344010093430110933E01009383
:100FF0003D0181E090E0ABD982D81093500100937D
:101000004F0181E090E0A3D97AD81093500100936A
:101010004F0181E090E09BD972D81093500100936A
:101020004F0110934A01009349011093440100932A
:10103000430181E090E08BD962D810935001009376
:101040004F0181E090E083D95AD81093500100936A
:101050004F0110934A0100934901109344010093FA
:10106000430110933E0100933D0181E090E06FD970
:1010700046D881E090E06BD953C041D80CE211E032
:101080001093500100934F0110933E0100933D01D6
:1010900081E090E05CD933D81093500100934F0168
:1010A000109344010093430181E090E050D927D888
:1010B0001093500100934F0110934A01009349018E
:1010C00081E090E044D91BD81093500100934F0168
:1010D00010934A010093490181E090E038D90FD87C
:1010E0001093500100934F0110934401009343016A
:1010F00081E090E02CD903D81093500100934F0168
:1011000010933E0100933D0181E090E020D9F7D794
:1011100081E090E01CD904C0109269001092680030
:101120008091680090916900019690936900809386
:1011300068001F910F9108950F931F93CF93DF9332
:10114000AB9A8AE090E003D9AB98C1E0D0E010926E
:1011500042011092410110924801109247011092F1
:101160004E0110924D0110925401109253018EE1E4
:1011700090E0EDD802E310E010933E0100933D01B2
:10118000109344010093430110934A0100934901D5
:101190001093500100934F018AE090E0D8D810924C
:1011A0003E0110923D0110924401109243011092B1
:1011B0004A01109249011092500110924F018AE0A9
:1011C00090E0C5D81092420110924101109248015E
:1011D0001092470110924E0110924D01109254014D
:1011E000109253018EE190E0B2D810933E0100932B
:1011F0003D01109344010093430110934A01009371
:1012000049011093500100934F018AE090E09FD86C
:1012100010923E0110923D01109244011092430140
:1012200010924A01109249011092500110924F0100
:1012300088E090E08CD82196C330D10509F087CFA3
:10124000DF91CF911F910F910895EF92FF920F932D
:101250001F93CF93DF9370DF52D78AE090E077D867
:10126000C0E0D0E001E010E00F2EF5E3EF2EF1E05A
:10127000FF2EF02D8AE090E024D8892B91F08AE0AF
:1012800090E042D8892B69F0A89A8AE090E05FD874
:10129000A89888E290E05BD80F5F1F4F04301105DB
:1012A0003CF584E190E00DD8892B31F01C161D0629
:1012B00014F0C4E6D0E0219784E190E025D8892B92
:1012C00031F0C436D10514F0C0E0D0E02196F80129
:1012D000EE0FFF1FEE0DFF1DD783C683D587C48792
:1012E000D38BC28BD18FC08F82E090E030D8C2CF39
:1012F000DF91CF911F910F91FF90EF9008951CDF28
:1013000008951ADF089518DF089588E290E01BDA47
:1013100088E290E01CD888E290E0F6D7892B11F0A3
:1013200028DB089588E290E061DA08950F931F9317
:10133000CF93DF93A89A8AE090E009D8A898CDE3EC
:10134000D1E005E511E081E090E090933E018093CB
:101350003D01909344018093430190934A0180930F
:1013600049019093500180934F018CE291E0998361
:10137000888384E190E0EBD72696C017D10719F750
:10138000DF91CF911F910F9108952F923F924F922D
:101390005F926F927F928F929F92AF92BF92CF9205
:1013A000DF92EF92FF920F931F93CF93DF93C39A35
:1013B0008AE090E0CCD7C39822243324CC24DD24C7
:1013C0000F2EF5E0EF2EFF24F02D02E310E0AA240B
:1013D000BB246894A2F88824992483944424552437
:1013E000689441F8C0E0D0E00F2EF5E36F2EF1E0F5
:1013F0007F2EF02D2196CA30D10514F0C0E0D0E048
:101400008AE090E0C80ED91E9CE2C91691E0D90688
:1014100014F0CC24DD2484E190E0E80EF91E9CE277
:10142000E91691E0F90614F0EE24FF24025E1F4F46
:1014300081E00C32180714F000E010E0C930D1054B
:10144000F4F00894A11CB11C95E0A916B1041CF09D
:10145000AA24BB24A39408948108910818141904A1
:1014600024F088249924689482F80894411C511C23
:1014700085E0481651041CF0442455244394F5019A
:10148000EE0FFF1FEA0DFB1DEE0FFF1FE60DF71D10
:10149000D382C282F401EE0FFF1FE80DF91DEE0F9B
:1014A000FF1FE60DF71DF582E482C2010196FC01E3
:1014B000EE0FFF1FE80FF91FEE0FFF1FE60DF71DE0
:1014C0001183008381E090E042D719D60894211C53
:1014D000311C9BE8291692E0390609F08BCFDF9189
:1014E000CF911F910F91FF90EF90DF90CF90BF9021
:1014F000AF909F908F907F906F905F904F903F90B4
:101500002F900895CF93DF93C29AC0E0D0E0D0939C
:101510004001C0933F01D0934601C0934501D09351
:101520004C01C0934B01D0935201C093510181E013
:1015300090E00DD72196C536D10549F766E970E0F0
:1015400083E090E0B4D566E970E081E090E0AFD54B
:1015500088EC90E0FCD660E070E083E090E0A7D5F6
:1015600060E070E081E090E0A2D5C4E6D0E0D093E6
:101570004001C0933F01D0934601C0934501D093F1
:101580004C01C0934B01D0935201C093510181E0B3
:1015900090E0DDD621978FEFCF3FD80741F7C29873
:1015A000DF91CF910895680F791FFB013197EC30DF
:1015B000F105D0F4E75DFF4F0994F5DA089552D9AB
:1015C0000895BADD089583DA08959FDE0895AEDEAA
:1015D0000895DBDE089596DF089595DE089591DE87
:1015E00008958DDE089531DE0895CF93DF9387D57A
:1015F0008AE090E09093400180933F0190934601F0
:101600008093450190934C0180934B01909352013C
:10161000809351019CD673D5AED6C0E0D0E082E075
:1016200090E072D6892B49F060916A0070916B004E
:101630008091660090916700B6DF82E090E041D62D
:10164000892B79F1809166009091670001979093C2
:1016500067008093660018161906ACF084E090E0ED
:10166000909367008093660080916A0090916B0070
:10167000049690936B0080936A00089724F0109270
:101680006B0010926A003BD5809166001ED573D620
:1016900081E090E090936900809368008EE190E093
:1016A00056D681E090E053D62196CA3FD10509F085
:1016B000B6CFDF91CF91089580E090E02DE630E045
:1016C000FC01E20FF31F9183808302968636910519
:1016D000B9F720E030E04DE650E0F901E40FF51FE6
:1016E000E853FF4F88279927821B930B91838083B0
:1016F000225030408FEF2A39380779F70895BA9A87
:10170000BB9AA09AA19AA29AA39AA49AA59ABD98C4
:10171000C59ABC98C49A889A899A8A9A8B9A8C9A04
:10172000BE9ABF9A8D9A8E9A8F9AB89AB99AA59AAC
:10173000C3DF0895E4DF10926B0010926A00B1D409
:1017400090E090936700809366004FDFFECF97FB99
:10175000092E07260AD077FD04D00CD006D0002031
:101760001AF4709561957F4F0895F6F790958195DD
:101770009F4F0895AA1BBB1B51E107C0AA1FBB1FA7
:10178000A617B70710F0A61BB70B881F991F5A950D
:10179000A9F780959095BC01CD010895E199FECF00
:1017A000BFBBAEBBE09A11960DB20895E199FECF92
:1017B000BFBBAEBB0DBA11960FB6F894E29AE19A90
:0617C0000FBE0895FFCFEB
:0A17C600010002000300040001000E
:00000001FF
